{
  "_format": "hh-sol-artifact-1",
  "contractName": "MoneyTransfer",
  "sourceName": "contracts/MoneyTransfer.sol",
  "abi": [
    {
      "inputs": [],
      "name": "getBalance",
      "outputs": [
        {
          "internalType": "uint256",
          "name": "",
          "type": "uint256"
        }
      ],
      "stateMutability": "view",
      "type": "function"
    },
    {
      "inputs": [
        {
          "internalType": "address",
          "name": "recipient",
          "type": "address"
        }
      ],
      "name": "transfer",
      "outputs": [],
      "stateMutability": "payable",
      "type": "function"
    }
  ],
  "bytecode": "0x608060405234801561001057600080fd5b506105c0806100206000396000f3fe6080604052600436106100295760003560e01c806312065fe01461002e5780631a69523014610059575b600080fd5b34801561003a57600080fd5b50610043610075565b60405161005091906102a7565b60405180910390f35b610073600480360381019061006e9190610325565b6100bb565b005b60008060003373ffffffffffffffffffffffffffffffffffffffff1673ffffffffffffffffffffffffffffffffffffffff16815260200190815260200160002054905090565b600034116100fe576040517f08c379a00000000000000000000000000000000000000000000000000000000081526004016100f5906103d5565b60405180910390fd5b600073ffffffffffffffffffffffffffffffffffffffff168173ffffffffffffffffffffffffffffffffffffffff160361016d576040517f08c379a000000000000000000000000000000000000000000000000000000000815260040161016490610441565b60405180910390fd5b8073ffffffffffffffffffffffffffffffffffffffff163373ffffffffffffffffffffffffffffffffffffffff16036101db576040517f08c379a00000000000000000000000000000000000000000000000000000000081526004016101d2906104d3565b60405180910390fd5b6000349050806000803373ffffffffffffffffffffffffffffffffffffffff1673ffffffffffffffffffffffffffffffffffffffff168152602001908152602001600020600082825461022e9190610522565b92505081905550806000808473ffffffffffffffffffffffffffffffffffffffff1673ffffffffffffffffffffffffffffffffffffffff16815260200190815260200160002060008282546102839190610556565b925050819055505050565b6000819050919050565b6102a18161028e565b82525050565b60006020820190506102bc6000830184610298565b92915050565b600080fd5b600073ffffffffffffffffffffffffffffffffffffffff82169050919050565b60006102f2826102c7565b9050919050565b610302816102e7565b811461030d57600080fd5b50565b60008135905061031f816102f9565b92915050565b60006020828403121561033b5761033a6102c2565b5b600061034984828501610310565b91505092915050565b600082825260208201905092915050565b7f416d6f756e74206d7573742062652067726561746572207468616e207a65726f60008201527f2e00000000000000000000000000000000000000000000000000000000000000602082015250565b60006103bf602183610352565b91506103ca82610363565b604082019050919050565b600060208201905081810360008301526103ee816103b2565b9050919050565b7f526563697069656e74206164647265737320697320696e76616c69642e000000600082015250565b600061042b601d83610352565b9150610436826103f5565b602082019050919050565b6000602082019050818103600083015261045a8161041e565b9050919050565b7f53656e64657220616e6420726563697069656e742063616e6e6f74206265207460008201527f68652073616d652e000000000000000000000000000000000000000000000000602082015250565b60006104bd602883610352565b91506104c882610461565b604082019050919050565b600060208201905081810360008301526104ec816104b0565b9050919050565b7f4e487b7100000000000000000000000000000000000000000000000000000000600052601160045260246000fd5b600061052d8261028e565b91506105388361028e565b92508282039050818111156105505761054f6104f3565b5b92915050565b60006105618261028e565b915061056c8361028e565b9250828201905080821115610584576105836104f3565b5b9291505056fea2646970667358221220b3b0103daee7978cbff64583849878205b0461d12a59dda35183fe1bbef3e23464736f6c63430008110033",
  "linkReferences": {},
  "deployedLinkReferences": {}
}