{
  "_format": "hh-sol-artifact-1",
  "contractName": "MoneyTransfer",
  "sourceName": "contracts/MoneyTransfer.sol",
  "abi": [
    {
      "inputs": [],
      "stateMutability": "nonpayable",
      "type": "constructor"
    },
    {
      "inputs": [
        {
          "internalType": "address payable",
          "name": "receiver",
          "type": "address"
        }
      ],
      "name": "transfer",
      "outputs": [],
      "stateMutability": "payable",
      "type": "function"
    }
  ],
  "bytecode": "0x608060405234801561001057600080fd5b50336000806101000a81548173ffffffffffffffffffffffffffffffffffffffff021916908373ffffffffffffffffffffffffffffffffffffffff160217905550610155806100606000396000f3fe60806040526004361061001e5760003560e01c80631a69523014610023575b600080fd5b61003d600480360381019061003891906100f2565b61003f565b005b60003490508173ffffffffffffffffffffffffffffffffffffffff166108fc829081150290604051600060405180830381858888f1935050505015801561008a573d6000803e3d6000fd5b505050565b600080fd5b600073ffffffffffffffffffffffffffffffffffffffff82169050919050565b60006100bf82610094565b9050919050565b6100cf816100b4565b81146100da57600080fd5b50565b6000813590506100ec816100c6565b92915050565b6000602082840312156101085761010761008f565b5b6000610116848285016100dd565b9150509291505056fea264697066735822122057ee80f4dee5df4633fbc13f9f600df7ee6c0fe36d3a73fc63d5e772f10c3ab564736f6c63430008110033",
  "linkReferences": {},
  "deployedLinkReferences": {}
}